:020000040800F2
:100000008833022441040008492E0108F91C010824
:10001000412E010859270008096A01080000000064
:10002000000000000000000000000000213801086E
:100030008139000800000000C12E0108F9430108C1
:100040005F0400085F0400085F0400085F04000804
:100050005F0400085F0400085F0400085F040008F4
:100060005F0400085F0400085F040008C12E000858
:10007000D12E0008E12E0008F12E00085F040008D0
:100080005F0400085F040008D92600085F04000828
:100090005F0400085F0400085F0400085F040008B4
:1000A0005F0400085F0400085F0400085F040008A4
:1000B0005F040008794601085F0400085F04000837
:1000C0005F0400085F0400085F0400085F04000884
:1000D0005F0400085F04000881690108F9690108EC
:1000E0005F0400085F040008000000005F040008CF
:1000F0005F0400085F0400085F0400085F04000854
:100100005F0400085F0400085F04000891350108DF
:100110005F0400085F0400085F0400085F04000833
:100120005F0400085F0400085F0400085F04000823
:100130005F0400085F0400085F0400085F04000813
:1001400000000000000000000000000000000000AF
:100150005F0400085F0400085F0400085F040008F3
:100160005F0400085F0400085F0400085F040008E3
:100170005F0400085F0400085F040008000000003E
:100180005F0400085F0400085F0400085F040008C3
:100190005F0400085F0400085F0400085F040008B3
:1001A0005F0400085F0400085F0400085F040008A3
:1001B0005F0400085F0400085F0400085F04000893
:1001C0005F0400085F0400085F0400085F04000883
:1001D0005F0400085F0400085F0400085F04000873
:1001E0005F0400085F0400085F0400085F04000863
:1001F0005F0400085F0400085F0400085F04000853
:100200005F0400085F0400085F0400085F04000842
:100210005F0400085F0400085F0400085F04000832
:100220005F0400085F0400085F040008000000008D
:100230005F0400085F040008000000005F0400087D
:100240005F0400085F0400085F0400085F04000802
:100250005F0400085F0400085F0400085F040008F2
:100260005F0400085F0400085F0400085F040008E2
:100270005F0400085F0400085F040008000000003D
:100280005F0400085F0400085F040008000000002D
:10029000000000005F04000800F002F800F0C0F861
:1002A00014A696E8000CB244B344DA4501D100F03C
:1002B000B7F8BAE80F000FA696E83000A5EB0405E2
:1002C00004EB0607AAEB0704A7F101074FEA15158F
:1002D0004FEA3414A4F10104AC4201D300F0A0F8B9
:1002E00013F0010F18BFFB1A43F0010300F001F8EF
:1002F000DBE7184708040300280403000A4410F849
:10030000014B14F00F0508BF10F8015B240908BF6A
:1003100010F8014B6D1E05D010F8013B6D1E01F861
:10032000013BF9D1641E03D0641E01F8015BFBD1CF
:100330009142E4D37047000070470000002300247E
:1003400000250026103A28BF78C1FBD8520728BFE5
:1003500030C148BF0B6070476E2900F0BF82702922
:1003600000F01584662919F0A087652919F09D878A
:10037000672919F09A87612919F0998703681B0A80
:1003800028BF41F08001692900F06C82642900F0E7
:100390006982752900F066826F2900F0A3837829AD
:1003A00000F0E183E92900F03D83E42900F03A837D
:1003B000F52900F03783EF2900F0A083F82900F039
:1003C000E0830368DB0928BF41F08001632901F065
:1003D000E580732901F0EA80E32901F0F580F32933
:1003E00001F0FA80002070471FB519F051FF9DE819
:1003F000030001F0EBFB01F0E9F90400002000210B
:1004000019F030FF401C60600020002119F014FF3B
:10041000E06001F0E9F81FBD10B501F04EF910BD24
:1004200001F0A6F91146FFF7DFFF18F0A1FD01F07A
:100430006DFB03B4FFF7F0FF03BC01F045FD0000C6
:100440000A4880470A4880470A480047FEE7FEE717
:10045000FEE7FEE7FEE7FEE7FEE7FEE7FEE7FEE774
:1004600005480649064A074B70470000193F000837
:10047000E944010899020008882D022488330224E7
:10048000882F0224882F022453EA020C00F069808E
:100490002DE9F04B4FF00006002B1FBFB3FA83F598
:1004A00003FA05F424FA05F65E4012BF1643B2FAC9
:1004B00082F502FA05F4C5F120051EBF22FA05FCFB
:1004C00044EA0C04203556EA044C4FEA144418BFA1
:1004D000641C4FF000084FF00009904271EB030CD0
:1004E00039D3002919BFB1FA81F701FA07F6B0FA3A
:1004F00080F700FA07F6C7F120071EBF20FA07FCB5
:1005000046EA0C062037B6FBF4FCA7EB0507103FC4
:1005100007F01F0BCBF120062CFA06F60CFA0BFBAA
:1005200044BFB3460026202FA4BF5E464FF0000B09
:100530005BEA060C08BF4FF0010B19EB0B0948EB07
:100540000608ABFB027C06FB02CC0BFB03CCC01BFA
:1005500071EB0C01C1E70B46024641464846BDE837
:10056000F08B13B5084318BF4FF0FF300146AFF3CF
:100570000080BDE81C4070470FB4044910B503AAC1
:10058000029800F0DFF910BC5DF814FBB4400024C1
:100590000FB41CB50C0007AA009007D04142A1423D
:1005A00002D32044401E01E04FF0FF30074B7B4454
:1005B00069460190069800F0AAF90021002C01D0AC
:1005C000009A11701CBC5DF814FB0000830300004E
:1005D00010B5431C02E010F8011B71B18107FAD17C
:1005E0004FF0013202C88C1A8C4314EAC211F9D0C0
:1005F000C01A0A0603D0C01E10BDC01A10BD0A04DE
:1006000001D0801E10BD0902FCD0401E10BD10B5E7
:10061000203AC0F00B80B1E81850A0E81850B1E8BB
:100620001850A0E81850203ABFF4F5AF5FEA027CFA
:1006300024BFB1E81850A0E8185044BF18C918C02A
:10064000BDE810405FEA827C24BF51F8043B40F8CB
:10065000043B08BF7047D20728BF31F8023B48BFB0
:1006600011F8012B28BF20F8023B48BF00F8012BEE
:1006700070474FF000020429C0F0128010F0030C04
:1006800000F01B80CCF1040CBCF1020F18BF00F885
:10069000012BA8BF20F8022BA1EB0C0100F00DB834
:1006A0005FEAC17C24BF00F8012B00F8012B48BF92
:1006B00000F8012B70474FF0000200B51346944636
:1006C0009646203922BFA0E80C50A0E80C50B1F1AA
:1006D0002001BFF4F7AF090728BFA0E80C5048BFBE
:1006E0000CC05DF804EB890028BF40F8042B08BF5C
:1006F000704748BF20F8022B11F0804F18BF00F858
:10070000012B70470000000030B44FF0013C50F85E
:10071000042BCCFA52F451F8043BD51A20D1FCB981
:1007200050F8042BCCFA52F451F8043BD51A17D1E7
:10073000B4B950F8042BCCFA52F451F8043BD51A52
:100740000ED16CB950F8042BCCFA52F451F8043B9A
:10075000D51A05D1002CDAD030BC4FF0000070471C
:1007600029BAB1FA81F111F01801D1F120008440C9
:10077000F2D1CA40CB4012F0FF0213F0FF0330BCAD
:10078000D01A704770477047704710B500F0CEFA26
:10079000006810BD10B5044600F0C8FA046010BD32
:1007A00070B5044685690068C10601D5302600E0B1
:1007B0002026C00707D070BDD4E9012130469047FC
:1007C000206A401C20626D1EF6D570BD70B50446CF
:1007D00085690078C00707D170BDD4E901212020C8
:1007E0009047206A401C20626D1EF6D570BD0968D6
:1007F0004A0501D540B27047C905FCD500B2704723
:1008000009684A0501D5C0B27047C905FCD580B258
:10081000704770B50C460546012A05D02878800639
:1008200000D5EA69002302E0012305E05B1C934246
:1008300002D2E05C0028F9D1A869E618C01AA861C4
:10084000286A184428622846FFF7AAFF04E0D5E981
:10085000012114F8010B9047B442F8D32846FFF762
:10086000B5FF70BD2DE9F0410646002410687529DA
:10087000314616A510D0FFF7BAFF002802DA404231
:1008800013A507E031688A0701D512A502E04907E0
:1008900004D511A5012401E0FFF7B2FF00210A22CF
:1008A00006F1240709E0B0FBF2FCB0FBF2F302FB17
:1008B0001C00303078541846491C0028F3D12346D8
:1008C0002A463046BDE8F04100F079BA0000000049
:1008D0002D0000002B0000002000000011680268BD
:1008E000006A530501D508700AE0D30501D50880D8
:1008F00006E0130603D5C217C1E9000200E0086054
:100900000120704701694A1C02610878704700B5F0
:100910008FB0CDE901310021059105497944CDE938
:1009200003101146684600F03DF90FB000BD00000D
:10093000E5FFFFFFD1E900239A4202D2531C0B606E
:1009400010707047074B70B50D467B44FFF7DFFF13
:100950000446284600F044FE10B14FF0FF3070BD51
:10096000204670BDFB8501002DE9FF5F15468A46D4
:100970000446DFF8AC80F8440027D8E900103E4672
:10098000CDE9001010E03AF816106A4602A800F00F
:10099000C7FE411C07D02178890603D5E2693918C2
:1009A00091420DD80744761C2078800602D5E06974
:1009B000B84205DDAE42E6DB3AF816000028E2D187
:1009C000A069C01BA0612046FFF7EAFED8E900102D
:1009D000CDE90010002017E03AF818106A4602A886
:1009E00000F09EFEB0F1FF3F81460BD000250DF1D7
:1009F000080B05E0D4E901211BF8050090476D1CA8
:100A00004D45F7D308F10100B0428046E4DB206A8F
:100A1000384420622046FFF7D9FEBDE8FF9F000062
:100A20003A9901002DE9F0418046D21D22F00702DB
:100A30000025D2E90002F52915A614D0011E72F195
:100A4000000106DA0023D0EB030063EB020211A6DB
:100A500008E0D8F800108B0701D50FA602E049077F
:100A600001D50EA601251146002408F1240704E053
:100A700000F060F930323A55641C50EA0102F7D1B7
:100A80002B46324621464046BDE8F04100F097B97A
:100A9000000000002D0000002B00000020000000DE
:100AA00030B4002100F1240408E002F00705D20868
:100AB000303542EA4372DB086554491C52EA0305AB
:100AC000F3D10468002310A2250708D504F0200400
:100AD0000C4304D0C46901230CA2641EC46130BC61
:100AE00000F06DB910B5044621461068FFF788FE86
:100AF00002462046BDE810400023D1E7D21D22F077
:100B00000701D1E90023CBE700000000300000001E
:100B1000F0B40D460188090502D5214C7C4402E061
:100B20001F4C7C440E34002100F1240608E002F042
:100B30000F071209E75D42EA03721B097754491C4B
:100B400052EA0307F3D102780023120704D5702D6F
:100B500006D009B1022311342246F0BC00F02FB9AF
:100B600001231034F8E770B504460D46214610689D
:100B7000FFF746FE024629462046BDE870400023A6
:100B8000C6E7D21D22F00703D3E90023C0E70368BC
:100B9000126843F0200303600823C3610023B7E712
:100BA0009C9701002DE9F05F894604464FF0000A4A
:100BB000DFF874B1FB44C0F820A02046E168884704
:100BC000002874D0252806D0D4E901219047206A56
:100BD000401C2062F1E700265F462046E168884716
:100BE0002028054607DB312D05D2781910F8200C96
:100BF00008B10643F1E7B00701D526F00406C4F8B2
:100C00001CA00027C4F818A02A2D09D0284619F0E6
:100C10000BFB38B304EB8708303DC8F8185019E0D7
:100C200059F8041B204604EB87029161E16888476C
:100C3000012F054618D1E069002820DA26F02006A9
:100C40001DE0D8F8180000EB800005EB40003038BC
:100C5000C8F818002046E1688847054619F0E4FA0C
:100C60000028EED1012F0AD02E2D08D12046E168B0
:100C700088477F1C0546022F46F02006C4DBA0698A
:100C8000002803DA404246F00106A061F00701D0D7
:100C900026F010066C2D0BD0682D09D04C2D39D0C4
:100CA0006A2D35D0742D35D07A2D33D016E038E04A
:100CB000E1682F4620468847B842054609D16C2F87
:100CC00026D04FF48060E1680643204688470546F9
:100CD00004E06C2F1AD04FF4807006430DB3A5F1D9
:100CE0004100192802D8203546F400664A462946B4
:100CF000204626604E46FFF72FFB80B101280BD01F
:100D0000F61D26F0070000F1080956E74020E4E749
:100D10008020D8E70020D6E706F104094DE72846F1
:100D200052E7206ABDE8F09F2C9701000048704709
:100D30005C41002430B5B0F10A0271F100034FEAC2
:100D4000900E4EEA817EB0EB0E0061EB91014FEA0E
:100D5000101E4EEA017E10EB0E0041EB11114FEA1E
:100D6000102E4EEA016E10EB0E0041EB11214FEAFE
:100D7000104E4EEA014E10EB0E0041EB11414018AF
:100D800041F100014FEAD00040EA41704FEAD10141
:100D90004FEA810444EA907410EB800544EB0104AF
:100DA0006D1944EB0404521BA3414FF0000348BFEC
:100DB0000A3200D530BD401C41F1000130BD2DE9A3
:100DC000F0470D4699469246044600F12408016812
:100DD000880604D5E06921F01001216000E00120BF
:100DE000A84201DD471B00E00027A1697A1902EB48
:100DF0000900081AA0612078C00602D42046FFF737
:100E0000CFFC002608E0D4E901211AF8060090473B
:100E1000206A401C761C20624E45F4DB2078C00618
:100E20000AD52046FFF7BCFC06E0D4E901213020BA
:100E30009047206A401C2062381EA7F10107F4DCAD
:100E400007E0D4E9012118F805009047206A401C0A
:100E50002062281EA5F10105F3DC2046FFF7B6FC51
:100E60002078000602D50220BDE8F0870120FBE7CC
:100E70002DE9FF4F0C461E464FF0FF378BB0D2E9ED
:100E80000001DDF860800A908A46C1F30A5505B971
:100E90003D46002108464FF00000BAF1000F00F473
:100EA000400005DA00EB80004FF4400101EA5000F9
:100EB0004FEA9059B9F1010F00DDB9460A9850EA9E
:100EC0004A000ED044F61050A5F2FF3545432F14CA
:100ED000B8F1000F1ED07542291E1EDDC9F10002B7
:100EE0001CE0B8F1010F4FF0000001D0302103E009
:100EF000F24305E02154401CB042FBDB30460022A7
:100F0000002121540B99C1F80880C1E900200FB0DD
:100F1000BDE8F08FBD1B6D1CDEE74A4600DA694272
:100F200006A800F0BFFC06AB93E8070003AB83E81C
:100F3000070050460A9918F0DEF98DE80700A0F581
:100F400000501F3800900398002D0ADD42F21F0167
:100F50004A460844002303A90390684618F048FC59
:100F600009E0A0F500504A461F38002303A903906A
:100F7000684618F052FC8DE807000004000C03D00E
:100F80004FF0FF30410800E01046B8F1000F03D0E9
:100F90000022009215461EE0751E05D4FFF7CAFE1A
:100FA000303262556D1EF9D5B3460122084302D096
:100FB00000227F1C04E02078302801D100227F1E0F
:100FC000002A099784D01DE0112D07DAFFF7B2FE41
:100FD000303262556D1C50EA0102F5D1084302D04F
:100FE0000098C8B10EE00021681E05E0235C625C39
:100FF00063542254401E491C8142F7DBAB46A81BB8
:10100000401E0990002004F80B000B98099AC0F8C4
:101010000880C0E9002B7AE711264FF0000857E757
:101020002DE9F04F88460446D21D22F0070191B009
:10103000D1E90001CDE90A0118F026FD02460B981E
:10104000C00F01D02D2007E02068810701D52B209B
:1010500002E0202101EAC000032A099001D0072AFA
:1010600005DB03464146204600F0DCFB0BE120781F
:10107000800601D5E06900E00620B8F1650F8146E1
:1010800006D0B8F1660F18D0B8F1670F70D131E013
:101090000020B9F1110F009001DB112301E009F1EB
:1010A00001030AAA01A90CA8FFF7E2FEDDE90C7012
:1010B000002609F10105834647E001204B460090D8
:1010C0004FF000470AAA01A90CA8FFF7D1FEDDE9FD
:1010D0000DB00C995D46002610B909F101000D18FC
:1010E000B9EB050003D4C0F1FF3609F10105A5EB0A
:1010F00009002BE0B9F1010F01DA4FF001090020DE
:10110000B9F1110F0090484601DD112300E00346BC
:101110000AAA01A90CA8FFF7ABFEDDE90C704D4649
:1011200000268346207800070AD4AB4500DA5D46E6
:1011300001A8012D04DD411911F8011C302907D047
:101140004F4502DA17F1040F04DA012082460FE05E
:101150006D1EEEE7002F02DCED1B3E4403E0781C21
:10116000A84200DD7D1CB81B00F1010A4FF00047CA
:101170002078000703D4AA4501DB4FF0FF3A002195
:10118000B7F1004F0DF143088DF8431024D0022031
:101190002B23002F01DA7F422D230A21021EA0F10A
:1011A000010000DC5FB197FBF1FC97FBF1F201FB62
:1011B0001C7C17460CF1300C08F801CDEEE7A8F1C5
:1011C000010003702188090501D5452100E0652152
:1011D000A0F1010800F8011C09980FA9A1EB08076C
:1011E000FF1D00B10120411901EBEA70A1693844EB
:1011F000081A401EA0612078C00602D42046FFF7DE
:10120000CFFA099828B1D4E901219047206A401CFF
:1012100020622078C00622D52046FFF7C1FA1EE0E2
:10122000002E04DBB34502DD01A8805D00E0302024
:10123000D4E901219047206A401C2062761CAAF163
:1012400001005FEA000A0AD100F0C0FAC068016834
:10125000405CD4E901219047206A401C2062281E8E
:10126000A5F10105DCDC07E0D4E9012118F8010B48
:101270009047206A401C2062381EA7F10107F3DC6A
:101280002046FFF7A3FA032011B041E62DE9F04F05
:1012900004460D46D21D22F0070089B0D0E9009720
:1012A0004846394618F0F0FB0246F80F01D02D23CE
:1012B00007E02068810701D52B2302E0202101EA05
:1012C000C0038DF820300BB1012000E00020032A7C
:1012D000824601D0072A04DB2946204600F0A2FA04
:1012E0003FE12078800601D40D2500E0E569C7F3D1
:1012F0000A560D2D49DA00214FEA175B08464FF0D8
:101300000000002F00F4400007DA00EB80004FF4EB
:10131000400100EBD07001EA60008115012901DD78
:101320004FF0FF3100224FEA850CBCF1180F06D3B5
:101330001346ACF118004FF08052C24003E04FF466
:10134000801323FA0CF30CF10C0CBCF1200F04D326
:10135000ACF1200C09FA0CF001E007FA0CF00029BE
:101360004FF0004801DD18B90FE00ED140450CD315
:1013700019EB02095F4121B9404502D19F4329EA97
:101380000209BBEB175F00D0761C2088000502D550
:101390007B48784402E07A487844193808AA302318
:1013A00002F80A30037C0AF10101002E0AF1020A58
:1013B00053546A4602DC4FF0300101E04FF0310136
:1013C0004FF001088DF8001002D0A6F2FF3603E0BE
:1013D00059EA470100D06B4E002D02DC2178090745
:1013E00004D54FF002082E218DF80110C4460021CB
:1013F0000BE0C7F303433F01C35C491C6D1E02F8B9
:101400000830052908F1010801DA002DF1DC00217E
:101410000CE000EB1973491C1B786D1E082902F8BB
:1014200008304FEA091908F1010801DA002DF0DC53
:1014300021688B0602D516E0A8F10108E04505DD1C
:1014400002EB080313F8013C302BF5D0B8F1000F84
:1014500009DD02EB080313F8013C2E2B03D1090729
:1014600001D4A8F10108002D05DD3E2102F8081085
:101470006D1E08F10108407C002E02F8080008F1FA
:10148000010804DA2D20764202F8080002E02B2041
:1014900002F808000A214FF47A70864208F1010828
:1014A0000BDB96FBF0F3303302F8083096FBF0F3D9
:1014B00008F1010800FB136601E0642E0CDB6420D8
:1014C00096FBF0F3303302F8083096FBF0F308F1A6
:1014D000010800FB136601E00A2E06DB96FBF1F023
:1014E000303002F8080008F1010896FBF1F001FB2A
:1014F0001060303002F80800A16908F1010808EB1B
:10150000050202EB0A00081AA0612078C00602D486
:101510002046FFF745F9216A08AE01EB0A00206278
:1015200004E0D4E9012116F8010B9047BAF1010A51
:10153000F7D22078C00602D52046FFF731F96E4673
:1015400009E016F8010B3E280FD0D4E9012190479D
:10155000206A401C2062B8F10108F2D22046FFF751
:1015600035F909B00320BDE8F08F206A28442062D5
:1015700003E0D4E90121302090476D1EEBD3F8E75A
:10158000958F010002FCFFFF10B5436913B1AFF363
:10159000008001E0FFF73DF9012010BD127800F155
:1015A00024010A7000224A700122EDE711684FF011
:1015B000FF32E9E710B5436913B1AFF3008001E0F2
:1015C000FFF7D2F9012010BD128800F124018284B6
:1015D0000022C2840122EDE711684FF0FF32E9E7F3
:1015E000007B00F08000704710B542485421FFF79F
:1015F00062F841485421FFF75EF840485421FFF754
:101600005AF83F493B483C4A3F4B08603D490A6015
:101610003A491960531C0365481C10650120086590
:101620003B48344A39A1784400F0D2F920B938480F
:1016300078440A3800F073FA37482F4A35A17844C5
:1016400000F0C6F920B9344878440A3800F067FA47
:1016500032482A4A2FA1784400F0BAF920B92F481D
:1016600078440A3800F05BFA40232248DC0000216D
:10167000224600F089F920B125487844543800F01A
:101680004EFA1D4822464023002100F07DF920B18A
:1016900021487844543800F042FA18482246102372
:1016A000002100F071F9002806D01C487844BDE8FC
:1016B0001040563800F033BA10BD104870B5006DB8
:1016C00020F001040B4800F0FBF90B4800F0F8F99A
:1016D0000A4800F0F5F909E0206D20F001052046E8
:1016E00000F0EEF9204600F075F82C46002CF3D1FE
:1016F00070BD000060400024B44000240841002474
:1017000000000024040000240800002472000000EF
:10171000148D010077000000008D0100EC8C0100A9
:101720002DE9F04116460C46054600F047F80368DF
:1017300093F80101012807D0FF2C12D8185D80B161
:1017400001202C70BDE8F081D3F807013246214614
:1017500003F20713C7182846BC46BDE8F041002332
:1017600060474FF0FF30EDE7004870475C410024D0
:101770007546FFF7F9FFAE4605006946534620F06F
:101780000700854618B020B5FEF76AFEBDE8204088
:101790004FF000064FF000074FF000084FF0000B2D
:1017A000AC46ACE8C009ACE8C009ACE8C009ACE89C
:1017B000C00921F007018D467047000010B500F008
:1017C00005F8001D10BD00BF9D8A0100004870474C
:1017D0007C41002470B50446051F00F0DBF9006869
:1017E000002C14BF446870BD002C18BFAC423CBF35
:1017F00020466468F8D301680A18AA4218BF4560F9
:1018000003D12A6805461144016028684119A142A4
:101810001CBF6C6070BD6168696021680844286005
:1018200070BD00002DE9F0411F4604460326016803
:10183000072A01F4006004DB08B116A505E016A52F
:1018400003E008B115A500E015A521F01000206007
:10185000A069C01EA0610FB1401EA0612046FEF726
:101860009FFF4FB1D4E9012138469047206A401CC0
:101870002062C01C206206E0206AFAE7D4E9012158
:1018800015F8010B9047761EF8D22046FEF79EFF12
:10189000BDE8F0814E414E006E616E00494E46003B
:1018A000696E66002DE9F047814616468AB03548D4
:1018B00078440DC88DE80D0032487844801C03AC94
:1018C0000DC884E80D0041F69B300844372190FB99
:1018D000F1F290FBF1F5A5F1800501FB12041B3C30
:1018E00002D56442012000E00020DFF898A0804685
:1018F0000027FA44AAF1BE0A0EE0E0070AD03246F9
:10190000684607EB470101230AEB810117F085FFC9
:101910008DE8070064107F1C002CEED1194F7F4426
:10192000AE3F19E0E80715D007EB04100DF1180AD7
:1019300090E80E008AE80E00C068F04201D19819C4
:1019400008903246012306A903A817F066FF03ABEF
:1019500083E807006D10641C002DE3D14FF00103F4
:1019600032466946B8F1000F03A802D017F040FFD5
:1019700001E017F052FFC9E90001C9F808200AB0D8
:10198000BDE8F087148B010070B5C468A50713D0BB
:10199000650211D4B2F5807F09D0B2F5007F06D080
:1019A000B2F5806F08D1012300F1240106E05D1E2D
:1019B0006FF07F46B54201D3012070BD0161C36164
:1019C000416024F470611143C160002070BD0000CB
:1019D0002DE9F0410C461646070047D0104600F0AE
:1019E0006FF82078611C61280AD0722802D077280D
:1019F0003CD102E00125002405E00225042402E098
:101A0000082448F2020511F8010B2B2806D06228A1
:101A100009D011F8010C74280AD00BE045F0030539
:101A200044F00204EFE745F0040544F00104EAE75E
:101A300044F010043846214600F078F8411C15D0D7
:101A40000021316171604FF40071F560F1617061E6
:101A5000200704D530460222002100F015F9306D30
:101A600040F0010030653046BDE8F0810020FBE722
:101A70002DE9F0410D460646104C206DC10704D0FB
:101A8000410804D020F00104F7E722460EE054207C
:101A900000F0CBF807000ED0206D47F0010108439D
:101AA000542120653846FEF706FE3A462946304660
:101AB000BDE8F0418CE70020D6E70000604000243C
:101AC0002DE9F04704464FF0FF380026C568D4E9F9
:101AD0000497A80718D0204600F092F9384600F085
:101AE0002FF8002800DA4646280502D54846FFF7B9
:101AF00071FE4C212046FEF7DEFD206D20F0010036
:101B000020653046BDE8F0874046FBE710B5044647
:101B1000AFF300802046BDE81040FEF78ABC10B548
:101B200000F0B8F9BDE8104000F0AEB90EB5CDE94F
:101B30000001FEF74DFD029069460120ABBE0EBDCF
:101B400008B5694600900220ABBE08BD1FB58DE800
:101B5000070069460520ABBE04B010BD1FB58DE877
:101B60000F0069460620ABBEF6E708B5694600904F
:101B70000920ABBE08BD1CB5CDE9000169460A20AD
:101B8000ABBE1CBD704708B5694600900C20ABBECB
:101B900008BD00000048704764410024704770474A
:101BA0007047704738B504460A4600206946AFF3CF
:101BB0000080002808BF38BD02460099204600F08A
:101BC00090F9012038BD012000F0DFB9F8B5AFF37E
:101BD0000080054600200C460C2000BF0646A819D0
:101BE000A0420DD9324669460020AFF300800700BD
:101BF00008BF00F0CAF90098A04218BF0546C419F2
:101C0000FFF7C8FF05600746F01D20F007004619E2
:101C1000284600F060F9B44208BFF8BDA21B314667
:101C20003868BDE8F84000F05CB970B50646FFF7CB
:101C3000B1FF056806F10B0020F00704B4429CBF19
:101C4000002070BD2B466A68BAB11068A04210D35C
:101C500004F1080188423CBF5068586007D35168BE
:101C6000101941601168091B016058601460101D53
:101C700070BD13465268002AE7D121462846FFF777
:101C800091FF0028DED170BD2DE9F04104461646D3
:101C90000D464769007B80072ED03846FFF765FF69
:101CA00050BB3EB3012E02D0022E25D104E02046C7
:101CB00000F031F905441DE03846FFF764FFE168A4
:101CC000002841F01001E16005DA204600F058F8E4
:101CD0000120BDE8F081C9030BD56268E16A914239
:101CE00000D81146A26911442269891A814200DD97
:101CF00008460544002D01DA0220EAE7E16A60683F
:101D0000E268814206D29103E06203D522F40031F9
:101D100041F01002A6690027AE4213DCE16A81425D
:101D200001D90B4600E0034603EB060C2369ACEB3C
:101D3000030CAC4506DD814201D98C4600E08446A7
:101D40009C4505D1A760276042F02000A5620DE008
:101D5000AD1BE669AE1B8142A66000D90846C01AD9
:101D6000281A20605819606022F0200003490840BA
:101D7000E060002084F84870ABE70000BFCFD7FFD9
:101D8000C16821F4001141F08001C160002181602F
:101D9000016070472DE9F74F15460C464FF0FF3BA9
:101DA0003848D768D2F814A0074209D05046A9692C
:101DB000FFF7E1FE002819DB3248C0430740EF601F
:101DC0004FF000496FF000484C4501D3464600E013
:101DD000264600993B4650463246FFF7B7FEA969B2
:101DE00020F00042B21A1144A96128B12846FFF739
:101DF000C7FF5846BDE8FE8FA41BE5D10020F9E7D8
:101E000070B504460569C06A6168884200D8084612
:101E1000E16821F42011E160C90312D5A84208D07D
:101E20002246411B2846FFF7B5FF10B14FF0FF30A7
:101E300070BD0020E562C4E90150E06820F4803004
:101E4000E060002070BD10B50446C06820F020009E
:101E5000E060A16AA06988420DD02046FFF7D0FF5C
:101E6000E06820F4405040F01000E060A06AA061FB
:101E70002069E062606044F24001E0688843E0600D
:101E800010BD000010000200002801D000F01CB8B6
:101E90007047000010B5014602A000F05DF8012077
:101EA00010BD000053494752545245443A205265F0
:101EB0006469726563743A2063616E2774206F7081
:101EC000656E3A200000000001491820ABBEFEE715
:101ED00026000200704700210160416070470C201D
:101EE0007047034640688C46002818BF88423CBFB4
:101EF00003464068F8D318681844884207D00CF1AC
:101F0000030020F00700001D411A521A0146081D67
:101F10000A60FFF75FBC10B50146C268900703D0A6
:101F2000900607D5886A0AE0FEF700FF01210160EC
:101F3000881E10BD8B69486818440B69C01A91F857
:101F400048301BB191F84910401A10BD1103FCD55F
:101F50000028FADD401E10BD70B505460C460A206B
:101F600000E06D1C00F018F835B128780028F8D191
:101F700002E0641C00F010F814B120780028F8D1B9
:101F8000BDE870400A2000F007B810B500F00CF86A
:101F9000BDE81040FFF778BF08B569468DF800002E
:101FA0000320ABBE08BD000010B5012805D00021FC
:101FB00003A0FFF7D1FF012010BD09A1F8E7000041
:101FC00053494752544D454D3A204F7574206F6622
:101FD0002068656170206D656D6F7279000000008A
:101FE0003A2048656170206D656D6F727920636F6E
:101FF000727275707465640080B584B00390039844
:10200000006842F20001C4F20201884209D0FFE7F1
:102010000398006842F20011C4F20201884209D11B
:10202000FFE742F20830C4F20200006810F4403FBB
:1020300009D129E046F20830C5F60200006810F424
:10204000403F21D0FFE70AF0D3FA0290039840689E
:102050000190B0F5803F0AD0FFE70198B0F5003F4E
:1020600005D0FFE70198B0F5403F07D00AE003989C
:10207000C1880298B0FBF1F0029004E00298800859
:10208000029000E0FFE75FE04FF40020002108F03D
:10209000EBF90290039840680090B0F5802F32D0A1
:1020A000FFE70098B0F5002F2DD0FFE70098B0F5BE
:1020B000402F28D0FFE70098B0F5801F23D0FFE71E
:1020C0000098B0F5A01F1ED0FFE70098B0F5C01F24
:1020D00019D0FFE70098B0F5E01F1FD0FFE7009888
:1020E000B0F5001F1ED0FFE70098B0F5101F1DD0FF
:1020F000FFE70098B0F5201F1CD0FFE70098B0F56F
:10210000301F1BD01EE0039841686FF0010000EA09
:1021100051410298B0FBF1F0029014E002980009DE
:10212000029010E00298400902900CE002988009A9
:10213000029008E00298C009029004E00298000AA8
:10214000029000E0FFE7FFE707F0E6FB41F2030142
:10215000884217D8FFE7029842F60151C0F23111C8
:10216000884207D3FFE703980168886840F48070CD
:10217000886006E003980168886820F480708860B1
:10218000FFE743E0029840080290029845F610618C
:10219000C0F25F01884209D8FFE7039800688068B1
:1021A00020F440700399096888602EE002984BF68D
:1021B0002041C0F2BE0188420AD8FFE703980068B8
:1021C0008068012161F309200399096888601BE098
:1021D000029847F64001C0F27D1188420AD8FFE715
:1021E000039800688068022161F309200399096857
:1021F000886008E003980068806840F440700399A4
:1022000009688860FFE7FFE7FFE7FFE704B080BDEC
:1022100080B58AB008900791002005900798049037
:10222000089800680FF0C8FE0290089800680FF048
:1022300077FE0190029828B9FFE70198002800F086
:10224000A880FFE708980068C0688001002836D59C
:10225000FFE70898407D012831D1FFE70898007D0D
:1022600001282CD1FFE701200490FFE708980068BF
:10227000006800F040010020B0EB911F1AD1FFE789
:1022800005984DF60041C0F20C0188420ED3FFE7DD
:102290000899486D40F0100048650899886D40F035
:1022A0000100886501208DF8270076E0059801304F
:1022B0000590DBE70898016840200860FFE7049874
:1022C000022813D0FFE7089800680FF075FE60B190
:1022D000FFE7089800680FF04FFE28B9FFE708985D
:1022E00000680FF0C5FEFFE7FFE7FFE7049801284D
:1022F00013D0FFE7089800680FF012FE60B1FFE707
:10230000089800680FF038FE28B9FFE708980068C1
:102310000FF01AFEFFE7FFE7FFE70498009002289E
:1023200007D0FFE70098032806D1FFE70C200390B1
:1023300005E00820039002E004200390FFE707F087
:10234000F3FA0690FFE7089800688068039908424E
:102350001ED0FFE707F0E8FA0699401A062816D3C0
:10236000FFE7089800688068039908420ED0FFE7ED
:102370000899486D40F0100048650899886D40F054
:102380000100886501208DF8270006E0FFE7DAE705
:10239000FFE700208DF82700FFE79DF827000AB02F
:1023A00080BD00000000000080B582B0019001985F
:1023B000806B00900098406D10F0500F4AD1FFE7FD
:1023C0000099486D40F40070486500980068006806
:1023D0000007002821D5FFE7009800680FF0FCFDFA
:1023E000D0B1FFE700980068C0688004002812D4CC
:1023F000FFE70099486D20F4807048650098406DB3
:10240000C004002806D4FFE70099486D40F00100A1
:102410004865FFE7FFE7FFE718E000980068C0683D
:10242000800790B9FFE70099486D20F480704865F7
:102430000098406DC004002806D4FFE70099486D5D
:1024400040F001004865FFE7FFE7FFE7009802F072
:102450000FFD10E00098406DC006002804D5FFE78E
:10246000009802F01DFD05E00098C06CC16C019859
:102470008847FFE7FFE702B080BD000000000000D2
:1024800080B582B001900198806B00900099486DF2
:1024900040F0400048650099886D40F00400886570
:1024A000009802F0FDFC02B080BD000000000000BA
:1024B00080B582B001900198806B0090009802F086
:1024C000EBFC02B080BD000080B584B002900298A1
:1024D00000680FF051FD0090029800680FF054FD65
:1024E00000284BD0FFE70098002847D1FFE702986B
:1024F0000068806800F00D00012809D1FFE702980C
:1025000000680FF0B9FC02980168032008600DE034
:102510000299486D40F0100048650299886D40F0BE
:102520000100886501208DF80F002BE007F0FCF911
:102530000190FFE7029800688068C007E8B1FFE7F4
:1025400007F0F2F90199401A032815D3FFE7029822
:1025500000688068C00770B1FFE70299486D40F0DD
:10256000100048650299886D40F0010088650120DF
:102570008DF80F0006E0FFE7DCE7FFE700208DF8AD
:102580000F00FFE79DF80F0004B080BD00000000C1
:1025900080B586B00490049800680FF0F5FC002820
:1025A00040F09280FFE70498006880683F21C8F2FD
:1025B000000108420ED0FFE70499486D40F010007A
:1025C00048650499886D40F00100886501208DF808
:1025D00017007DE0049800680FF06AFC07F0A4F98A
:1025E000039004980168012042F20002C4F2020242
:1025F000914201900CD0FFE7049800684DF60071FD
:10260000CBF6FD710844B0FA80F040090190FFE775
:102610000198C10746F20030C5F6020000291CBF30
:1026200042F20030C4F202000FF072FC02900498F3
:10263000006842F20011C4F20201884206D1FFE7AD
:1026400042F20000C4F20200009003E00498006827
:102650000090FFE7009804990968884203D0FFE7DB
:10266000029880BBFFE7FFE7049800680068C00796
:1026700040BBFFE7049800680FF086FC28B9FFE72D
:10268000049800680FF014FCFFE707F04DF9039978
:10269000401A032815D3FFE7049800680068C007B4
:1026A00070B9FFE70499486D40F01000486504993F
:1026B000886D40F00100886501208DF8170007E063
:1026C000FFE7D1E7FFE7FFE700208DF81700FFE7FE
:1026D0009DF8170006B080BD80B542F6F000C2F24A
:1026E000024002F0E1FB80BD80B584B00390ADF8FC
:1026F0000A10ADF808204FF6FF70ADF806000399F8
:102700004AF25A500880BDF80A0003994880BDF883
:10271000080003998880BDF806000399098800F035
:102720001FF8ADF80600BDF806000399498800F0CF
:1027300017F8ADF80600BDF806000399898800F087
:102740000FF8ADF80600BDF806000399C88004B084
:1027500080BD000000000000FFE7FEE70000000071
:1027600083B0ADF80A00ADF8081000200190FFE733
:1027700001980F2828D8FFE7BDF80800C00BADF876
:102780000200BDF80A00C00BADF80000BDF80A0059
:102790004000ADF80A00BDF80200BDF80010484046
:1027A00008D0FFE7BDF80A0041F221014840ADF82A
:1027B0000A00FFE7BDF808004000ADF80800FFE799
:1027C000019801300190D3E7BDF80A0003B07047CB
:1027D00085B0049003914FF0FF30029000200190EB
:1027E000FFE701980399884224D2FFE704980199F2
:1027F000415C02984840029000200090FFE700985A
:10280000072812D8FFE7029A500848F22031CEF686
:10281000B85181EA5201D207002A18BF0846029037
:10282000FFE7009801300090E9E7FFE701980130E9
:102830000190D6E70298C04305B070470000000041
:1028400086B004908DED030A9DED030A9FED251AD5
:10285000B4EE410AF1EE10FA04DCFFE704980068D8
:1028600005903BE09DED030A9FED1F1AB4EE410A6F
:10287000F1EE10FA05DBFFE70498D0F8C4000590EC
:102880002CE09DED030A9FED171A80EE010ABFEEC2
:10289000001A30EE010A8DED020A9DED020ABCEE2F
:1028A000C00A8DED010A9DED020A9DED011AB8EEF8
:1028B000411A30EE410A8DED000A0498019900EBAF
:1028C00081009DED001A90ED000A90ED012A32EE94
:1028D000402AA1EE020A8DED050AFFE79DED050AEB
:1028E00006B0704700401C460024F4480000000079
:1028F00080B582B08DF807009DF80700B0FA80F02F
:10290000420940F60000C5F60200402106F0ECFF47
:1029100002B080BD0000000080B582B042F6AD017B
:10292000C2F202410020087042F60C41C2F202419C
:1029300000910968486242F6F000C2F2024044F297
:10294000BC11C2F200414FF4805202F0C5FF0146B3
:1029500000988DF807100CF003FBFFE742F6AD007E
:10296000C2F20240007808B9FFE7F7E742F60C40F0
:10297000C2F202400CF070FB42F6F000C2F20240DC
:1029800003F09AF842F6AD01C2F20241002008704D
:1029900002B080BD000000004EF2C831C2F200411A
:1029A000002008707047000080B582B04EF2C83039
:1029B000C2F2004000780146019148B1FFE701985A
:1029C000012806D1FFE7FFF7E7FF00F0C1F801E0BB
:1029D000FFE7FFE702B080BD80B582B001900198AB
:1029E00000F002F802B080BD80B582B0019001987D
:1029F00008B9FFE73DE0FFF7CFFF019840F218511B
:102A0000C0F60201FDF780FE68B9FFE742F6AC01AF
:102A1000C2F202410120087040F2EC40C0F6020010
:102A2000FDF7AAFD25E0019840F22051C0F6020111
:102A3000FDF76AFE68B9FFE742F6AC01C2F2024157
:102A40000220087040F2FD40C0F60200FDF794FD40
:102A50000FE0019840F21251C0F60201FDF754FE5A
:102A600038B9FFE74EF2C831C2F2004101200870C8
:102A7000FFE702B080BD000080B586B00590ADF8DC
:102A800012100020ADF81000FFE7BDF81000BDF8EF
:102A90001210884259DAFFE70598BDF81010405C23
:102AA0008DF80F009DF80F000A2805D0FFE79DF86C
:102AB0000F000D281BD1FFE748F20C40C2F2014085
:102AC000008898B1FFE748F20C40C2F20140019043
:102AD000028848F2CC30C2F20140002102918154B8
:102AE000FFF77AFF019902980880FFE726E048F295
:102AF0000C40C2F2014000883E2810D8FFE79DF844
:102B00000F0048F20C41C2F201410B8848F2CC326E
:102B1000C2F20142D0540888013008800DE048F22A
:102B20000C41C2F201410020088048F2CC30C2F2D0
:102B300001404021FDF79DFDFFE7FFE7FFE7BDF8FE
:102B400010000130ADF810009FE706B080BD000016
:102B500070B59AB042F6D000C2F202400088B0F5DB
:102B6000805F06D0FFE701F093FB08B1FFE785E047
:102B7000FFE7FFF7D1FE08B1FFE77FE069464FF4BA
:102B800080500790486046F2CC30C2F20140049079
:102B9000086042F6D000C2F20240039044F2BC1139
:102BA000C2F2004146F2BC12C2F2004206924EF25C
:102BB000CC33C2F2004305930FF082FE0399049ACE
:102BC000059BEC464FF40050CCF800000AA80FF02B
:102BD0006FFD0698079A0A9BDDF82CC0DDF830E0FF
:102BE0000D9C0E9D0F9E40F66401C2F202410891B9
:102BF0004E610D61CC60C1F808E0C1F804C00B6003
:102C0000109BDDF844C0DDF848E0139C149D159E30
:102C1000CE628D624C62C1F820E0C1F81CC08B61AD
:102C2000169BDDF85CC0DDF860E0199CCC63C1F850
:102C300038E0C1F834C00B630FF0CEFD0020ADF8D2
:102C40002600FFE7BDF826100020B0EB113F15D19C
:102C5000FFE7BDF8261044F2BC10C2F2004030F885
:102C6000111040F24B30C0F60200FDF785FCFFE783
:102C7000BDF826000130ADF82600E3E71AB070BDBC
:102C800080B582B042F6EC40C2F2024048F20E41FA
:102C9000C2F2014180220CF077FC8DF807009DF80C
:102CA0000700002840F0F880FFE742F6EC40C2F24F
:102CB0000240D0F8800000681021C4F2020188426E
:102CC00000F0D180FFE742F6EC40C2F20240D0F8BB
:102CD000800000682821C4F20201884200F0C3800D
:102CE000FFE742F6EC40C2F20240D0F880000068F4
:102CF0004021C4F20201884200F0B580FFE742F6AD
:102D0000EC40C2F20240D0F8800000685821C4F2C2
:102D10000201884200F0A780FFE742F6EC40C2F2D1
:102D20000240D0F8800000687021C4F2020188429D
:102D300000F09980FFE742F6EC40C2F20240D0F882
:102D4000800000688821C4F20201884200F08B8074
:102D5000FFE742F6EC40C2F20240D0F88000006883
:102D6000A021C4F2020188427DD0FFE742F6EC4088
:102D7000C2F20240D0F880000068B821C4F202011B
:102D8000884270D0FFE742F6EC40C2F20240D0F831
:102D90008000006840F21041C4F20201884262D013
:102DA000FFE742F6EC40C2F20240D0F88000006833
:102DB00040F22841C4F20201884254D0FFE742F6B3
:102DC000EC40C2F20240D0F88000006840F240417E
:102DD000C4F20201884246D0FFE742F6EC40C2F25C
:102DE0000240D0F88000006840F25841C4F202016D
:102DF000884238D0FFE742F6EC40C2F20240D0F8F9
:102E00008000006840F27041C4F2020188422AD07A
:102E1000FFE742F6EC40C2F20240D0F880000068C2
:102E200040F28841C4F2020188421CD0FFE742F61A
:102E3000EC40C2F20240D0F88000006840F2A041AD
:102E4000C4F2020188420ED0FFE742F6EC40C2F223
:102E50000240D0F88000006840F2B841C4F202019C
:102E600088420CD1FFE742F6EC40C2F20240D0F8B3
:102E700080000168086820F0080008600BE042F656
:102E8000EC40C2F20240D0F880000168086820F0EF
:102E900004000860FFE7FFE79DF8070002B080BD6F
:102EA00081B042F6AC01C2F2024108788DF803000D
:102EB000002008709DF8030001B07047000000007A
:102EC00080B542F6BC20C2F2024004F0C1F880BDD9
:102ED00080B542F65410C2F2024004F0B9F880BD49
:102EE00080B542F64420C2F2024004F0B1F880BD41
:102EF00080B542F6CC10C2F2024004F0A9F880BDC1
:102F000083B002900298016801201022C4F20202EC
:102F10009142009000F0A380FFE702980168012031
:102F20002822C4F202029142009000F09880FFE74C
:102F30000298016801204022C4F2020291420090EE
:102F400000F08D80FFE70298016801205822C4F24A
:102F500002029142009000F08280FFE7029801682F
:102F600001207022C4F202029142009077D0FFE764
:102F70000298016801208822C4F202029142009066
:102F80006DD0FFE7029801680120A022C4F202027E
:102F90009142009063D0FFE7029801680120B822B7
:102FA000C4F202029142009059D0FFE702980168F2
:102FB000012040F21042C4F20202914200904ED031
:102FC000FFE702980168012040F22842C4F20202A1
:102FD0009142009043D0FFE702980168012040F23F
:102FE0004042C4F202029142009038D0FFE70298BA
:102FF0000168012040F25842C4F20202914200905E
:103000002DD0FFE702980168012040F27042C4F21F
:1030100002029142009022D0FFE70298016801204D
:1030200040F28842C4F202029142009017D0FFE7BA
:1030300002980168012040F2A042C4F202029142CB
:1030400000900CD0FFE7029800684FF64831CBF6AD
:10305000FD710844B0FA80F040090090FFE7009845
:10306000C00740B3FFE70298007810384AF6AB215A
:10307000CAF6AA21A0FB011000090190019800F0F6
:1030800007014AF2F030C0F60100405C0299C865C1
:103090000198042807D3FFE702990868042262F325
:1030A0000900886506E00299086840F2FF32904303
:1030B0008865FFE705E00299086820F0FF00886551
:1030C000FFE70298806D03B0704700000000000029
:1030D00084B0039003980068019003980168012070
:1030E00045F20842C5F60202914200904ED0FFE739
:1030F00003980168012045F21C42C5F60202914284
:10310000009043D0FFE703980168012045F2304268
:10311000C5F602029142009038D0FFE7039801689B
:10312000012045F24442C5F60202914200902DD0A2
:10313000FFE703980168012045F25842C5F60202F4
:103140009142009022D0FFE703980168012045F2E8
:103150006C42C5F602029142009017D0FFE7039837
:103160000168012045F28042C5F6020291420090BA
:103170000CD0FFE7039800684AF66C31CAF2FD7183
:103180000844B0FA80F040090090FFE70098C007BB
:1031900010B3FFE70398007808384CF6CD41CCF621
:1031A000CC41A0FB011000090290029945F60000F5
:1031B000C5F6020000EB810003990866039945F605
:1031C0008000C5F602004866029800F01F01012049
:1031D00088400399886635E00398007810384AF6ED
:1031E000AB21CAF6AA21A0FB0110000902900198A8
:1031F00040F2B841C4F2020188420CD8FFE70198BE
:1032000040F21041C4F20201884204D3FFE7029861
:1032100008300290FFE7029940F60000C4F2020075
:1032200000EB810003990866039940F68000C4F220
:1032300002004866029800F01F01012088400399AF
:103240008866FFE704B0704783B002900298007967
:1032500001900198002800F08A80FFE70198082873
:1032600000F28580FFE702980168012045F20842DC
:10327000C5F60202914200904ED0FFE70298016825
:10328000012045F21C42C5F602029142009043D053
:10329000FFE702980168012045F23042C5F60202BC
:1032A0009142009038D0FFE702980168012045F272
:1032B0004442C5F60202914200902DD0FFE70298E9
:1032C0000168012045F25842C5F602029142009081
:1032D00022D0FFE702980168012045F26C42C5F652
:1032E00002029142009017D0FFE702980168012086
:1032F00045F28042C5F60202914200900CD0FFE7F1
:10330000029800684AF66C31CAF2FD710844B0FABE
:1033100080F040090090FFE70098C00780B1FFE708
:10332000019945F6FC00C5F6020000EB8100029908
:10333000C866029945F64010C5F6020008670FE01E
:10334000019940F6FC00C4F2020000EB81000299F2
:10335000C866029940F64010C4F202000867FFE711
:103360000198411E0120884002994867FFE703B099
:10337000704700000000000085B0049000208DF828
:103380000F000498806918BBFFE70498806A0290D8
:1033900003281BD80299DFE801F0020D02180498F7
:1033A00090F82F00C00720B1FFE701208DF80F0033
:1033B000FFE70CE00498C06AB0F1C07F04D1FFE7DA
:1033C00001208DF80F00FFE701E000E0FFE747E094
:1033D00004988069B0F5005F26D1FFE70498806A01
:1033E000019003281ED80199DFE801F002060211BE
:1033F00001208DF80F0016E0049890F82F00C00708
:1034000020B1FFE701208DF80F00FFE70BE00498E3
:10341000C06AB0F1C07F04D1FFE701208DF80F0032
:10342000FFE700E0FFE71AE00498806A00900328B5
:1034300004D3FFE70098032804D00EE001208DF8A4
:103440000F000BE0049890F82F00C00720B1FFE7B1
:1034500001208DF80F00FFE700E0FFE7FFE7FFE73F
:103460009DF80F0005B0704789B00890079106924B
:1034700005930898806D04900898806D03900898D3
:10348000016801201022C4F202029142029000F071
:103490000381FFE70898016801202822C4F2020294
:1034A0009142029000F0F880FFE70898016801203F
:1034B0004022C4F202029142029000F0ED80FFE748
:1034C0000898016801205822C4F202029142029039
:1034D00000F0E280FFE70898016801207022C4F242
:1034E00002029142029000F0D780FFE7089801683D
:1034F00001208822C4F202029142029000F0CC80A6
:10350000FFE7089801680120A022C4F2020291425C
:10351000029000F0C180FFE7089801680120B822FE
:10352000C4F202029142029000F0B680FFE70898D0
:103530000168012040F21042C4F20202914202905E
:1035400000F0AA80FFE708980168012040F22842B5
:10355000C4F202029142029000F09E80FFE70898B8
:103560000168012040F24042C4F2020291420290FE
:1035700000F09280FFE708980168012040F258426D
:10358000C4F202029142029000F08680FFE70898A0
:103590000168012040F27042C4F20202914202909E
:1035A0007AD0FFE708980168012040F28842C4F20F
:1035B0000202914202906FD0FFE708980168012053
:1035C00040F2A042C4F202029142029064D0FFE7AE
:1035D00008980168012040F2B842C4F20202914208
:1035E000029059D0FFE708980168012045F208428F
:1035F000C5F60202914202904ED0FFE7089801689A
:10360000012045F21C42C5F602029142029043D0CD
:10361000FFE708980168012045F23042C5F6020232
:103620009142029038D0FFE708980168012045F2E6
:103630004442C5F60202914202902DD0FFE708985D
:103640000168012045F25842C5F6020291420290FB
:1036500022D0FFE708980168012045F26C42C5F6C8
:1036600002029142029017D0FFE7089801680120FA
:1036700045F28042C5F60202914202900CD0FFE76B
:10368000089800684AF66C31CAF2FD710844B0FA35
:1036900080F040090290FFE70298C00770B1FFE791
:1036A0000898416E806E48600898C06E28B1FFE7A8
:1036B0000898016F406F4860FFE7FFE708980168CE
:1036C00001201022C4F202029142019000F0A38076
:1036D000FFE70898016801202822C4F20202914203
:1036E000019000F09880FFE70898016801204022CF
:1036F000C4F202029142019000F08D80FFE7089829
:10370000016801205822C4F202029142019000F0A7
:103710008280FFE70898016801207022C4F202024B
:103720009142019077D0FFE7089801680120882234
:10373000C4F20202914201906DD0FFE7089801683F
:103740000120A022C4F202029142019063D0FFE75F
:10375000089801680120B822C4F202029142019047
:1037600059D0FFE708980168012040F21042C4F2E6
:103770000202914201904ED0FFE7089801680120B3
:1037800040F22842C4F202029142019043D0FFE786
:1037900008980168012040F24042C4F202029142BE
:1037A000019038D0FFE708980168012040F25842A4
:1037B000C4F20202914201902DD0FFE708980168FF
:1037C000012040F27042C4F202029142019022D0E4
:1037D000FFE708980168012040F28842C4F2020223
:1037E0009142019017D0FFE708980168012040F24C
:1037F000A042C4F20202914201900CD0FFE7089867
:1038000000684FF64831CBF6FD710844B0FA80F0FD
:1038100040090190FFE70198C00750B3FFE70898FF
:10382000C06D00F01F013F2088400499886008980F
:103830000168086820F480200860059808990968E4
:10384000486008988068402809D1FFE706980899E1
:1038500009688860079808990968C86008E00798AF
:10386000089909688860069808990968C860FFE7A0
:1038700082E008980168012045F20842C5F602027C
:10388000914200904ED0FFE708980168012045F270
:103890001C42C5F602029142009043D0FFE708980F
:1038A0000168012045F23042C5F6020291420090C3
:1038B00038D0FFE708980168012045F24442C5F678
:1038C0000202914200902DD0FFE708980168012084
:1038D00045F25842C5F602029142009022D0FFE71D
:1038E00008980168012045F26C42C5F60202914237
:1038F000009017D0FFE708980168012045F2804248
:10390000C5F60202914200900CD0FFE708980068CB
:103910004AF66C31CAF2FD710844B0FA80F04009F1
:103920000090FFE70098C00720B3FFE70898C06D3C
:1039300000F01F010120884003994860059808990C
:103940000968486008988068402809D1FFE7069810
:10395000089909688860079808990968C86008E0AC
:103960000798089909688860069808990968C860E6
:10397000FFE700E0FFE7FFE709B070470000000045
:10398000704700000000000010B5ADF51A7D999059
:103990004CF22700C4F2EA3018901520179040F23C
:1039A00029401690002014901390129011900E90C0
:1039B00017981590FFE715981699884217D8FFE7D2
:1039C000159940F6A400C2F2024000EB810090ED90
:1039D000001A9DED120A30EE010A8DED120A1198BF
:1039E00001301190FFE7159801301590E3E7119829
:1039F00098B1FFE79DED120AB1EE001A20EE010A20
:103A00009DED111AB8EE411A9FEDDB2A21EE021A44
:103A100080EE010A8DED030A04E09FEDD80A8DEDDA
:103A2000030AFFE79DED030A8DED100A9DED100AD4
:103A3000B1EE081A20EE010A9FEDD11A80FE010AAC
:103A40008DED0F0A179818B9FFE701201790FFE7CF
:103A5000169840F2FF71884204D3FFE740F2FE70EF
:103A60001690FFE717981590FFE71598169988426A
:103A700000F21481FFE7159940F6A400C2F202405B
:103A800000EB810090ED000A10ED011AB4EE410A3E
:103A9000F1EE10FA11DDFFE7159940F6A400C2F22D
:103AA000024000EB810090ED000A90ED011AB4EEA7
:103AB000410AF1EE10FA01DAFFE7EBE0159940F662
:103AC000A400C2F2024000EB810151F8041C0D91E8
:103AD000159950F821100C91159900EB8100406860
:103AE0000B909DED0D0A9DED0C1AB8EE002AA1EE8B
:103AF000020A9DED0B1A30EE010A8DED070A9DEDCD
:103B0000070AB0EEC00A9FEDB81AB4EE410AF1EE12
:103B100010FA11DDFFE79DED0D0A9DED0B1A30EE59
:103B2000410AB6EE001A20EE010A9DED071A80EE5A
:103B3000010A8DED020A04E09FEDA70A8DED020A4D
:103B4000FFE79DED020A8DED0A0A9DED0A0ABEEE21
:103B5000001AB4EE410AF1EE10FA04DAFFE74FF072
:103B60003F400A90FFE79DED0A0AB6EE001AB4EE58
:103B7000410AF1EE10FA04DDFFE74FF07C500A90A5
:103B8000FFE79DED0C0A9DED0D2A9DED0B1A31EE20
:103B9000421AB5EE002A21EE021A9DED0A2AA1EE84
:103BA000020AB1EE001A20EE010A9FED901A20EEF3
:103BB000010A8DED090A139808900898202803D36C
:103BC000FFE71F200890FFE7FFE70899002001901A
:103BD00089B1FFE7089919A800EB011010ED030A5D
:103BE0009DED091A0020B4EE410AF1EE10FAB8BFBB
:103BF00001200190FFE70198C007E0B1FFE70898B6
:103C00001F2814D8FFE708980DF1640E0EEB001181
:103C1000040151F810CC51F80C0C51F8082C51F853
:103C2000043C4EF804C0CB608A604860FFE7089807
:103C300001380890C9E708981F282AD8FFE79DEDAA
:103C4000150AB8EE400A9DED0A1A30EE010A9FED02
:103C5000681A20EE010A089819A901EB001080EDFE
:103C6000000A0998089A01EB02125060089801EBCB
:103C70000012012010721598089A01EB0211C86019
:103C800013981F2804D8FFE7139801301390FFE71B
:103C9000FFE7FFE7159801301590E6E6139818B195
:103CA000FFE71A980E90FFE79DED0F0A9DED0E1AA3
:103CB0009FED4A2A21EE021A9FED492A21EE021AAF
:103CC00080FE010A8DED0F0A00201590FFE715997F
:103CD000139A00209142009007D2FFE71499002028
:103CE000032938BF01200090FFE70098C007002893
:103CF00069D0FFE701208DF81B00159919A800EB8A
:103D0000011090ED010A9DED0F1AB4EE410AF1EE9B
:103D100010FA01DAFFE756E000200590FFE705986A
:103D2000149988422ED2FFE7159919A800EB0110CB
:103D300090ED000A9998059901EB410100EB810093
:103D400090ED001A30EE410AB0EEC00A8DED040A83
:103D50009DED040A9FED231AB4EE410AF1EE10FA2C
:103D600004DAFFE700208DF81B000BE0FFE7059861
:103D700001300590D3E700BF00008045000000003F
:103D80004B70583F9DF81B00C0B1FFE7999B1498FA
:103D9000411C149100EB400C03EB8C01DDF854E066
:103DA00019A800EB0E124FEA0E1E50F80E0043F851
:103DB0002C00506892688A604860FFE7FFE715981A
:103DC0000130159083E79998149910F039FA1498F6
:103DD0000DF51A7D10BD00BF000000000AD7A33CFE
:103DE000CDCC4C3F27C06A4508E53C1E0000803919
:103DF00027C0EA430000000072B6FFE7FEE70000BC
:103E000088B00790069107980068059000200490FC
:103E1000FFE7049802287AD8FFE70020029001907B
:103E20000390FFE70398069988425AD2FFE7079864
:103E3000039901EB410100EB810090ED000A9DED3B
:103E4000051A80EE010AB6EE001A30EE010ABBFE3A
:103E5000400ABCEEC00A8DED000A009818B9FFE7D1
:103E600001200090FFE70098332803D3FFE73220BA
:103E70000090FFE700980799039A02EB420201EBDA
:103E8000820108729DED000AB8EE400A0798039976
:103E900001EB410100EB810090ED001A90ED012A49
:103EA00020EE011A9DED020AA1EE020A8DED020A32
:103EB0000098404300EE100AB8EE401A07980399A4
:103EC00001EB410100EB810090ED012A9DED010A1B
:103ED000A1EE020A8DED010AFFE70398013003907D
:103EE000A0E79DED010AB5EE400AF1EE10FA09DDFA
:103EF000FFE79DED020A9DED011A80EE010A8DEDAE
:103F0000050AFFE7FFE704980130049081E79DED83
:103F1000050A08B07047000044F60C01C5F602011E
:103F2000086840F002000860FFE744F60400C5F6A8
:103F3000020000688004002801D4FFE7F5E770471D
:103F400040F66000C2F202400078704700000000B6
:103F500040F22000C2F2004018307047000000001C
:103F60004AF2AC30C2F2004070470000000000008E
:103F700080B58AB0002002900890079006900590C6
:103F800004904AF2A831C2F2004108704AF2AC3102
:103F9000C2F20041886148610861C8608860486079
:103FA000086040F66001C2F20241087048F64E0116
:103FB000C2F20141087048F64F01C2F20141087097
:103FC000FFE744F2E040C5F60200016841F0080155
:103FD0000160006800F0080003900398FFE74020AC
:103FE00004900120059006900220079040F6000002
:103FF000C5F6020004A905F087FA0020FEF778FC58
:104000000FF082FA20B1FFE701208DF8270018E0B9
:104010004AF2A931C2F2004100200190087005F077
:1040200083FC0146019842F6A802C2F202421160E6
:104030004AF2A832C2F20042012111708DF8270025
:10404000FFE79DF827000AB080BD000000000000D7
:1040500040F66001C2F20241002008704AF2A93124
:10406000C2F200410120087070470000000000000B
:1040700080B54AF2A830C2F20040007890B1FFE764
:104080004AF2A930C2F20040007803280AD1FFE7C3
:104090000020FEF72DFC48F64E01C2F2014101203E
:1040A0000870FFE780BD000080B54AF2A830C2F278
:1040B0000040007850B1FFE70020FEF719FC48F6F9
:1040C0004F01C2F2014101200870FFE780BD0000EE
:1040D00080B582B04AF2A830C2F20040007808B938
:1040E000FFE7D0E04AF2A930C2F200400078014672
:1040F0000191042800F2C6800199DFE801F0033144
:104100004C7FC20005F010FC42F6A801C2F2024149
:104110000968401A782822D3FFE70FF0A5F8A8B164
:10412000FFE74AF2AC30C2F20040007870B1FFE71E
:104130004AF2AC30C2F20040407838B1FFE74AF2B0
:10414000A931C2F200410120087007E005F0ECFB44
:1041500042F6A801C2F202410860FFE7FFE792E0E1
:104160000FF062FB70B9FFE74AF2A931C2F20041D9
:104170000220087005F0D8FB42F6A801C2F2024105
:10418000086007E04AF2AC31C2F2004148690130F0
:104190004861FFE777E005F0C7FB42F6A801C2F2ED
:1041A00002410968401A032827D3FFE705F0BCFB4A
:1041B00042F6A801C2F2024108600FF055F8D8B1EA
:1041C000FFE74AF2AC30C2F20040C078A0B1FFE78E
:1041D00010F09EF838B9FFE74AF2A931C2F2004167
:1041E0000320087007E04AF2AC31C2F2004188694E
:1041F00001308861FFE7FFE7FFE744E048F64F0042
:10420000C2F201400078A0B1FFE748F64F01C2F2C8
:104210000141002008704AF2AC31C2F200418869C5
:10422000013088614AF2A931C2F2004101200870D0
:1042300026E048F64E00C2F201400078F8B1FFE7F0
:1042400048F64E01C2F201410020087012F0E0FB76
:1042500068B1FFE740F66001C2F202410120087038
:104260004AF2A931C2F200410420087006E04AF285
:10427000A931C2F2004101200870FFE7FFE7FFE724
:1042800001E0FFE7FFE702B080BD00000000000092
:1042900080B582B042F6E000C2F202404FF40071F5
:1042A00012F0EEFE8DF806009DF9060028B1FFE73A
:1042B0009DF806008DF8070030E042F6B000C2F22B
:1042C00002404FF4806112F0DBFE8DF806009DF98C
:1042D000060028B1FFE79DF806008DF807001DE0F5
:1042E00042F6C000C2F202404FF4006112F0C8FE74
:1042F0008DF806009DF9060028B1FFE79DF806003D
:104300008DF807000AE042F6D000C2F202404FF4F6
:10431000805112F0B5FE8DF80700FFE79DF9070008
:1043200002B080BD0000000081B0009001B0704775
:1043300081B0009001B0704781B0009001B070472B
:1043400081B0009001B0704781B0009001B070471B
:1043500080B5A6B02490239100208DF88B0023987F
:10436000006808B1FFE7FFE7FFE7249890F85000E6
:10437000012804D1FFE702208DF897002DE1249950
:10438000012081F85000FFE7FFE700201D901E90FC
:104390002498006842F20001C4F20201884206D16A
:1043A000FFE742F20010C4F20200089002E0002091
:1043B0000890FFE7089878B9FFE72499486D40F026
:1043C00020004865FFE72499002081F85000FFE7AE
:1043D00001208DF8970000E108980DF0F5FD079099
:1043E000249800680DF0F0FD002840F0E280FFE71F
:1043F0000798002840F0DD80FFE72498016801203D
:1044000042F20002C4F20202914206900CD0FFE791
:10441000249800684DF60071CBF6FD710844B0FA9F
:1044200080F040090690FFE70698C10746F2003089
:10443000C5F6020000291CBF42F20030C4F202009F
:1044400021902398006800285ED0FFE721988068BB
:1044500020F44040239949680843219988602498B2
:104460000168012042F20002C4F20202914205906A
:104470000CD0FFE7249800684DF60071CBF6FD7173
:104480000844B0FA80F040090590FFE70598C1079D
:1044900046F20030C5F6020000291CBF42F200308F
:1044A000C4F2020042F20031C4F20201884212D189
:1044B000FFE742F20000C4F202000DF06DFD039030
:1044C00042F20010C4F202000DF066FD01460398AE
:1044D0000843049007E046F20000C5F602000DF024
:1044E0005BFD0490FFE7049868B9FFE721988068B6
:1044F00040F61F718843239A11689268114308435C
:1045000021998860FFE753E02199886820F44040B2
:10451000886024980168012042F20002C4F202027D
:10452000914202900CD0FFE7249800684DF600718C
:10453000CBF6FD710844B0FA80F040090290FFE725
:104540000298C10746F20030C5F6020000291CBFE0
:1045500042F20030C4F2020042F20031C4F2020121
:10456000884212D1FFE742F20000C4F202000DF0CF
:1045700013FD009042F20010C4F202000DF00CFD99
:10458000014600980843019007E046F20000C5F696
:1045900002000DF001FD0190FFE7019838B9FFE737
:1045A0002199886840F61F7290438860FFE7FFE713
:1045B00008E02499486D40F02000486501208DF8FE
:1045C0008B00FFE7FFE72499002081F85000FFE708
:1045D0009DF88B008DF89700FFE79DF8970026B0B7
:1045E00080BD00000000000080B5AAB02690259193
:1045F00000208DF893002190269890F8380001282B
:1046000001D1FFE700E0FFE72698006846F20001CD
:10461000C5F60201884201D1FFE7FFE72598C0688F
:104620000021C4F2FF71884201D0FFE71EE0269806
:10463000006842F20001C4F20201884201D1FFE7A2
:10464000FFE72698006842F20011C4F20201884296
:1046500001D1FFE7FFE72698006846F20001C5F6A2
:104660000201884201D1FFE7FFE7FFE7FFE7269855
:1046700090F85000012804D1FFE702208DF89F0038
:10468000F1E32699012081F85000FFE7FFE7269823
:1046900000680DF091FC002840F0D183FFE72598D9
:1046A000C078000600282DD4FFE725980068000395
:1046B00030B9FFE725980068C0F384601E9015E0CC
:1046C0002598006890FAA0F02890289820B9FFE774
:1046D00020208DF8A70005E02898B0FA80F08DF82A
:1046E000A700FFE79DF8A7001E90FFE71E9800F0C7
:1046F0001F01012000FA01F226980168C8691043E1
:10470000C861FFE72698006825990A6849680DF096
:104710007FFC269800680DF04FFC209026980068DA
:104720000DF0FEFB1F902098002840F0B580FFE7B9
:104730001F98002840F0B080FFE726980068259A6F
:10474000116892680DF0D4FC41F20000C5F60040FB
:10475000006800F07040B0F1805F0BD1FFE7259852
:10476000406926990968C96801F01C014908884018
:104770001D901FE026980068C068C00600280BD472
:10478000FFE72598406926990968C96801F01C016E
:10479000490888401C900AE02598406926990968D4
:1047A000C96801F01001490888401C90FFE71C9877
:1047B0001D90FFE71D98239025980069042821D0BB
:1047C000FFE72698006825990A680969239B0DF080
:1047D000FBFC26980068259A1169527E013AB2FACC
:1047E00082F25209D2070DF00BFD26980068259A37
:1047F0001169127E013AB2FA82F25209D2020DF028
:10480000CFFC48E026980068006E00F0F84025993B
:104810000968B0EB816F07D1FFE726980168086E41
:1048200020F000400866FFE726980068406E00F020
:10483000F84025990968B0EB816F07D1FFE726980A
:104840000168486E20F000404866FFE7269800683F
:10485000806E00F0F84025990968B0EB816F07D1B0
:10486000FFE726980168886E20F000408866FFE721
:1048700026980068C06E00F0F84025990968B0EBF2
:10488000816F07D1FFE726980168C86E20F00040CD
:10489000C866FFE7FFE7FFE7269800680DF074FBA6
:1048A000002840F0CB82FFE726980068259A11681F
:1048B000D2680DF039FC2598C0680021C4F2FF7160
:1048C000884240F05781FFE7269800681B9042F22B
:1048D0000001C4F20201884240F0A480FFE725985D
:1048E00000680221C0F23041884203D1FFE7012075
:1048F0001A9094E0259800680421C0F6600188426F
:1049000005D1FFE74020C1F62010199084E02598DA
:1049100000680821C0F69041884205D1FFE7802059
:10492000C1F65050189074E0259800681021C1F22B
:10493000C001884206D1FFE740F20010C2F28010A9
:10494000179063E0259800682021C1F2F041884269
:1049500006D1FFE740F20020C2F2B050169052E0BC
:104960002598006840F20041C2F60021884206D135
:10497000FFE740F60000C2F63060159040E0259851
:10498000006840F60001C2F63061884206D1FFE7B8
:1049900041F20000C3F2602014902EE025980068D8
:1049A00041F20001C3F26021884206D1FFE742F2E2
:1049B0000000C3F2906013901CE02598006800216D
:1049C000C4F22131884205D1FFE70020C4F25270C1
:1049D00012900CE0259801680022C4F68432002071
:1049E000914204BF0020C4F6B8701290FFE71298FD
:1049F0001390FFE713981490FFE714981590FFE7C2
:104A000015981690FFE716981790FFE717981890DB
:104A1000FFE718981990FFE719981A90FFE71A987E
:104A20001190A2E02698006842F20011C4F202013F
:104A3000884240F09480FFE7259800680221C0F288
:104A40003041884203D1FFE70120109084E025988F
:104A500000680421C0F66001884205D1FFE74020CC
:104A6000C1F620100F9074E0259800680821C0F668
:104A70009041884205D1FFE78020C1F650500E904A
:104A800064E0259800681021C1F2C001884206D177
:104A9000FFE740F20010C2F280100D9053E025981D
:104AA00000682021C1F2F041884206D1FFE740F2C0
:104AB0000020C2F2B0500C9042E02598006840F20D
:104AC0000041C2F60021884206D1FFE740F600000F
:104AD000C2F630600B9030E02598006840F6000187
:104AE000C2F63061884206D1FFE741F20000C3F20E
:104AF00060200A901EE02598006841F20001C3F290
:104B00006021884206D1FFE742F20000C3F29060C4
:104B100009900CE0259801680022C4F68432002038
:104B2000914204BF0020C4F6B8700990FFE70998CD
:104B30000A90FFE70A980B90FFE70B980C90FFE7AD
:104B40000C980D90FFE70D980E90FFE70E980F90D0
:104B5000FFE70F981090FFE71098089002E0002000
:104B60000890FFE708981190FFE71B9811990DF046
:104B70008FFAFFE72598C0780006002840F15D8194
:104B8000FFE726980168012042F20002C4F2020207
:104B9000914207900CD0FFE7269800684DF600710F
:104BA000CBF6FD710844B0FA80F040090790FFE7AA
:104BB0000798C10746F20030C5F6020000291CBF65
:104BC00042F20030C4F202000DF092F922902698D1
:104BD00001684FF0010042F20002C4F20202914269
:104BE00006900CD0FFE7269800684DF60071CBF6D2
:104BF000FD710844B0FA80F040090690FFE706987E
:104C0000C10746F20030C5F6020000291CBF42F27F
:104C10000030C4F2020042F20031C4F202018842C4
:104C200012D1FFE742F20000C4F202000DF0ACF92D
:104C3000049042F20010C4F202000DF0A5F9014602
:104C400004980843059007E046F20000C5F602000C
:104C50000DF09AF90590FFE70598002840F0E380F1
:104C6000FFE7259800680021CCF68431884255D1B1
:104C7000FFE79DF88A00000600284FD4FFE726983A
:104C8000006846F20001C5F60201884245D1FFE7FF
:104C900026980168012042F20002C4F20202914209
:104CA00003900CD0FFE7269800684DF60071CBF614
:104CB000FD710844B0FA80F040090390FFE70398C3
:104CC000C10746F20030C5F6020000291CBF42F2BF
:104CD0000030C4F20200229941F400010DF050FAB4
:104CE00040F21000C2F2004000684FEA901042F615
:104CF0006351C0F23E51A0FB01104FEA90114FF0FA
:104D0000020000EB41002190FFE7219820B1FFE76E
:104D1000219801382190F8E7FFE783E025980068A3
:104D20000021CCF25271884238D1FFE79DF88B0008
:104D3000C00798BBFFE72698006846F20001C5F659
:104D40000201884229D1FFE726980168012042F23A
:104D50000002C4F20202914202900CD0FFE72698B2
:104D600000684DF60071CBF6FD710844B0FA80F092
:104D700040090290FFE70298C10746F20030C5F6ED
:104D8000020000291CBF42F20030C4F20200229946
:104D900041F080710DF0F4F9FFE742E025980068DA
:104DA0000021CCF6B871884239D1FFE79DF88A001E
:104DB0004006002833D4FFE72698006846F2000139
:104DC000C5F60201884229D1FFE726980168012033
:104DD00042F20002C4F20202914201900CD0FFE7BD
:104DE000269800684DF60071CBF6FD710844B0FAC4
:104DF00080F040090190FFE70198C10746F20030BA
:104E0000C5F6020000291CBF42F20030C4F20200C5
:104E1000229941F480010DF0B3F9FFE700E0FFE7CC
:104E2000FFE7FFE708E02699486D40F0200048655D
:104E300001208DF89300FFE7FFE7FFE708E02699E0
:104E4000486D40F02000486501208DF89300FFE791
:104E5000FFE72699002081F85000FFE79DF89300B6
:104E60008DF89F00FFE79DF89F002AB080BD0000ED
:104E700081B00090009842F6F001C2F202418842EF
:104E800007D1FFE742F6AD01C2F2024101200870EE
:104E9000FFE701B07047000081B0009001B070479B
:104EA00081B0009001B0704780B590B00F900020A5
:104EB0000E900F98006800680D900F980068406889
:104EC0000C900F980168012042F20002C4F2020225
:104ED000914206900CD0FFE70F9800684DF60071E4
:104EE000CBF6FD710844B0FA80F040090690FFE768
:104EF0000698C10746F20030C5F6020000291CBF23
:104F000042F20030C4F202000DF002F807909DF862
:104F100034004FEA807000281AD5FFE79DF8300072
:104F20008007002814D5FFE70F98406DC0060028C1
:104F300006D4FFE70F99486D40F400604865FFE72D
:104F40000F98FFF7F1F90F98016802200860FFE75A
:104F50009DF834004007002806D5FFE70C9800F0C4
:104F6000040004280ED0FFE79DF834000007002855
:104F700040F19F80FFE79DF830000007002840F1D6
:104F80009880FFE70F98406DC006002806D4FFE721
:104F90000F99486D40F400704865FFE70F9800686E
:104FA0000DF01AF800287CD0FFE70F98006842F255
:104FB0000011C4F20201884206D1FFE742F200006C
:104FC000C4F20200059003E00F9800680590FFE727
:104FD00005980F99096888420BD0FFE7079840B100
:104FE000FFE70798052804D0FFE70798092805D1AF
:104FF000FFE70F980068C068099018E00F980068F4
:1050000042F20011C4F20201884206D1FFE742F2E7
:105010000000C4F20200049003E00F9800680490BE
:10502000FFE7049808900898C0680990FFE709987E
:1050300000F40050B0F5005F32D0FFE70F98006831
:105040000068000700282AD5FFE70F9800680CF0D9
:10505000B3FFC0B9FFE70F980168486820F00C0063
:1050600048600F99486D20F4807048650F98406D36
:10507000C004002806D4FFE70F99486D40F00100F6
:105080004865FFE70AE00F99486D40F01000486559
:105090000F99886D40F001008865FFE7FFE7FFE7A3
:1050A000FFE70F98FFF7E4FE0F9801680C200860F7
:1050B000FFE79DF834008006002806D5FFE70C982E
:1050C00000F0200020280ED0FFE79DF834004006B5
:1050D000002840F1B680FFE79DF830004006002828
:1050E00040F1AF80FFE70F98406DC006002806D45E
:1050F000FFE70F99486D40F400504865FFE70F98AF
:1051000000680CF015FF0B900F9800680CF064FF1E
:105110000A900F98006842F20011C4F2020188421E
:1051200006D1FFE742F20000C4F20200039003E060
:105130000F9800680390FFE703980F990968884269
:105140000BD0FFE7079840B1FFE70798062804D087
:10515000FFE70798072805D1FFE70F980068C068A8
:10516000099018E00F98006842F20011C4F20201A1
:10517000884206D1FFE742F20000C4F2020002902A
:1051800003E00F9800680290FFE7029808900898E3
:10519000C0680990FFE70B9800284AD0FFE79DF808
:1051A0002700800700280AD5FFE70A9800283FD08B
:1051B000FFE79DF825008006002839D4FFE70F9807
:1051C000006800684006002831D5FFE79DF82600FA
:1051D000800600282AD4FFE70F9800680CF0A0FE94
:1051E000C0B9FFE70F980168486820F06000486088
:1051F0000F99486D20F4805048650F98406DC005A8
:10520000002806D4FFE70F99486D40F0010048657B
:10521000FFE70AE00F99486D40F0100048650F99CC
:10522000886D40F001008865FFE7FFE7FFE7FFE7D3
:10523000FFE70F98FFF77CF80F980168602008607F
:10524000FFE79DF834000006002813D5FFE79DF81E
:105250003000000600280DD5FFE70F99486D40F497
:10526000803048650F9800F09FFA0F980168802001
:105270000860FFE79DF83500C00798B1FFE79DF88B
:105280003100C00770B1FFE70F99486D40F400305E
:1052900048650F98FFF754F80F9801684FF4807035
:1052A0000860FFE79DF835008007002814D5FFE768
:1052B0009DF83100800700280ED5FFE70F99486D53
:1052C00040F4802048650F98FFF73EF80F9801687A
:1052D0004FF400700860FFE79DF83400C006002816
:1052E0005DD5FFE79DF83000C006002857D5FFE7E1
:1052F0000F98006B18B9FFE701200E9038E007986F
:1053000058B3FFE70F980168012042F20002C4F28F
:105310000202914201900CD0FFE70F9800684DF611
:105320000071CBF6FD710844B0FA80F0400901909D
:10533000FFE70198C10746F20030C5F602000029D8
:105340001CBF42F20030C4F202000CF0D9FD18B1CB
:10535000FFE701200E90FFE709E00F980068C068A2
:10536000800718B1FFE701200E90FFE7FFE7FFE796
:105370000E9801280ED1FFE70F99486D40F4806028
:1053800048650F99886D40F0020088650F98FFF717
:1053900087FDFFE70F98016810200860FFE79DF880
:1053A00035004007002819D5FFE79DF83100400778
:1053B000002813D5FFE70F99486D40F480404865F9
:1053C0000F99886D40F0080088650F9801684FF4C8
:1053D000806008600F98FEF7AFFFFFE710B080BD58
:1053E00010B58CB00A9000208DF8270006900A981E
:1053F00020B9FFE701208DF82F00D1E10A98C0689D
:1054000038B1FFE70A98007F012801D1FFE7FFE7E5
:10541000FFE70A98406D50B9FFE70A9800F0C8F915
:105420000A99002088650A9981F85000FFE70A98D8
:1054300000680CF099FD28B1FFE70A9800680CF0AD
:105440002BFDFFE70A9800680CF0AEFDE8B9FFE716
:105450000A9800680CF03CFD40F21000C2F20040D7
:105460000068800942F66351C0F23E51A0FB010181
:10547000012000EB91100690FFE7069820B1FFE7AE
:10548000069801380690F8E7FFE70A9800680CF0E4
:105490008BFD70B9FFE70A99486D40F01000486530
:1054A0000A99886D40F00100886501208DF8270079
:1054B000FFE70A9800680CF07FFD07900A98406D9E
:1054C000C006002800F15E81FFE70798002840F041
:1054D0005981FFE70A98406D40F0020020F4807087
:1054E0000A9948650A9800680CF04EFD002870D1B2
:1054F000FFE70A980168012042F20002C4F20202AA
:10550000914203900CD0FFE70A9800684DF60071B5
:10551000CBF6FD710844B0FA80F040090390FFE734
:105520000398C10746F20030C5F6020000291CBFEF
:1055300042F20030C4F2020042F20031C4F2020131
:10554000884212D1FFE742F20000C4F202000CF0E0
:105550001BFD019042F20010C4F202000CF014FD99
:10556000014601980843029007E046F20000C5F6A4
:1055700002000CF009FD0290FFE7029840BBFFE734
:105580000A980168012042F20002C4F2020291422C
:1055900000900CD0FFE70A9800684DF60071CBF63A
:1055A000FD710844B0FA80F040090090FFE70098D0
:1055B000C10746F20030C5F6020000291CBF42F2C6
:1055C0000030C4F202000A9949680CF0C9FDFFE7F7
:1055D000FFE704F0A1F941F20401884213D3FFE789
:1055E0000A98806810280ED1FFE70A994A7D086B57
:1055F00040EA42308A681043097F40EA014040F0A7
:105600000C0008900BE00A994A7D086B40EA423092
:105610008A681043097F40EA01400890FFE70A9832
:10562000007F01280BD1FFE70A98016A0020CFF61E
:10563000FE7000EB4141089808430890FFE70A9884
:10564000406A50B1FFE70A99486A896A00F47870A5
:105650000143089808430890FFE70A980068C0686B
:105660004CF20301CFF6F0710840089908430A99FB
:105670000968C8600A9800680CF09EFC05900A98BA
:1056800000680CF04DFC04900598002859D1FFE704
:105690000498002855D1FFE70A98017DC06A40EAC6
:1056A000813008900A980068C06844F2030188437A
:1056B000089908430A990968C8600A9890F8380060
:1056C000012829D1FFE70A98406A20B1FFE70A982C
:1056D000806A08B9FFE7FFE70A98006800694FF69B
:1056E0001E01CFF6004100EA01020A9B1968DC6B3B
:1056F000D3F840E0D3F844C00020CFF6FF7000EBB1
:10570000044040EA0E0040EA0C009B6C1843104332
:1057100040F00100086106E00A980168086920F07D
:1057200001000861FFE70A980068006920F07040F6
:105730000A9A1168526B104308610A98FCF75CFCE6
:10574000FFE70A98C06801280CD1FFE70A980068B3
:10575000006B20F00F000A9A11689269013A104319
:10576000086306E00A980168086B20F00F000863E0
:10577000FFE70A98406D40F0010020F002000A990E
:10578000486508E00A99486D40F01000486501201E
:105790008DF82700FFE79DF827008DF82F00FFE721
:1057A0009DF82F000CB010BD81B0009001B0704783
:1057B00080B5BCB03B9000203A903990389037903B
:1057C000369006A8C021FAF776FF3B98006842F2AF
:1057D0000001C4F2020188427AD1FFE7002007905D
:1057E0004FF400210691022108910C2209920A919E
:1057F0000B910C91C0210D9120210E910F902F90B3
:1058000006A805F059FC18B1FFE7FEF7F5FAFFE727
:10581000FFE744F2D840C5F60200016841F02001DC
:105820000160006800F0200005900598FFE7FFE7A1
:1058300044F2E040C5F60200016841F00101016058
:10584000006800F0010004900498FFE78020369083
:10585000032037900020029038900020C5F6020007
:1058600036A903F051FE029942F65410C2F20240EA
:1058700003902822C4F20202026009224260816081
:10588000C1604FF4806202614FF4006242614FF4E4
:1058900000528261C1610162416202F0B9FC18B13B
:1058A000FFE7FEF7A9FAFFE7FFE73B9842F654113E
:1058B000C2F20241C1643B988863FFE71220019065
:1058C0000022114604F064F9019804F055F9FFE74D
:1058D0003CB080BD0000000080B588B00690059106
:1058E000049206980168012042F20002C4F202020A
:1058F000914201900CD0FFE7069800684DF60071C8
:10590000CBF6FD710844B0FA80F040090190FFE742
:105910000198C10746F20030C5F6020000291CBFFD
:1059200042F20030C4F202000CF0F2FA0290069843
:1059300000680CF041FB002840F0AF80FFE7FFE774
:10594000069890F85000012804D1FFE702208DF856
:105950001F00ABE00699012081F85000FFE7FFE748
:10596000029848B1FFE70298052805D0FFE70298A2
:10597000092840F08780FFE70698FCF709FE8DF8BC
:105980000F009DF80F00002874D1FFE70698406DC6
:1059900040F4807040F60161884306994865069896
:1059A000006842F20011C4F20201884206D1FFE70A
:1059B00042F20000C4F20200009003E00698006882
:1059C0000090FFE7009806990968884203D0FFE736
:1059D000029830B9FFE70699486D20F480104865B9
:1059E000FFE70698406DC004002806D5FFE706993A
:1059F000886D20F00600886503E006990020886520
:105A0000FFE70698C16C42F2A930C0F60000C863F7
:105A10000698C16C42F2B140C0F6000008640698D6
:105A2000C16C42F28140C0F60000C864069801686B
:105A30001C200860FFE70699002081F85000FFE76E
:105A400006980168486840F01000486006990868A8
:105A5000C96A0CF0CDFA06980168C06C4031059A0D
:105A6000049B03F085F88DF80F00069800680CF091
:105A7000EFFA06E0FFE70699002081F85000FFE703
:105A8000FFE709E001208DF80F00FFE706990020ED
:105A900081F85000FFE7FFE703E002208DF80F00D8
:105AA000FFE79DF80F008DF81F00FFE79DF81F002E
:105AB00008B080BD0000000080B584B00290FFE710
:105AC000029890F85000012804D1FFE702208DF8D9
:105AD0000F005DE00299012081F85000FFE7FFE729
